:100000000C942A000C943F000C943F000C943F0089
:100010000C943F000C943F000C943F000C943F0064
:100020000C943F000C943F000C943F000C943F0054
:100030000C943F000C943F000C943F000C943F0044
:100040000C943F000C943F000C943F000C943F0034
:100050000C943F0011241FBECFE5D8E0DEBFCDBF1A
:1000600010E0A0E6B0E0E6E0F9E002C005900D92F5
:10007000AC3FB107D9F70E94A3030C9481040C9400
:10008000000095B39F70282F207F922B95BB95B3CE
:100090009B7F95BB95B3986095BB35E03A95F1F79A
:1000A000000095B3977F95BBEFE1F3E03197F1F74F
:1000B00000C0000025B3F0E18F9FC0011124922FF2
:1000C0009F70892B85BB85B3886085BB35E03A95E9
:1000D000F1F7000085B3877F85BB8FE39FE1019730
:1000E000F1F700C00000089595B39F70282F207F7E
:1000F000922B95BB95B3946095BB95B3986095BBD7
:1001000035E03A95F1F7000095B3977F95BBEFE1A5
:10011000F3E03197F1F700C0000025B3F0E18F9FC5
:10012000C0011124922F9F70892B85BB85B38860F5
:1001300085BB35E03A95F1F7000085B3877F85BB35
:100140008FE39FE10197F1F700C000000895CF937E
:10015000DF93EC0103C021960E9474008881811115
:10016000FACFDF91CF910895823029F4862F806CE9
:100170000E9441000895862F80680E9441000895E2
:100180000F931F93CF93DF938B0190E00896880F16
:10019000880F880F0E944100C0E0D0E007C0F8013E
:1001A000EC0FFD1F80810E9474002196C830D1059C
:1001B000B4F380E80E944100DF91CF911F910F912D
:1001C00008950F931F93CF93DF93CDB7DEB7279793
:1001D0000FB6F894DEBF0FBECDBF80E80E9441008D
:1001E00085E790E00E94A7002FE784ED90E0215082
:1001F00080409040E1F700C0000000E010E01EC029
:1002000087E0E0E6F0E0DE01119601900D928A951C
:10021000E1F7BE016F5F7F4F82E00E94C000602F58
:1002200082E00E94B40082E00E9474008FE99FE0A7
:100230000197F1F700C000000F5F1F4F003111055B
:10024000FCF28FE99FE00197F1F700C0000081E028
:100250000E94410027960FB6F894DEBF0FBECDBFB7
:10026000DF91CF911F910F9108958FEF84BB8FE5A0
:100270009AEE0197F1F700C0000082E30E9441006E
:1002800088E20E94410080E80E94410080EC0E94C8
:1002900041008EE00E94410081E00E9441008CE01C
:1002A0000E9441000E94E1000895EF92FF920F9397
:1002B0001F93CF93DF93CDB7DEB764970FB6F89453
:1002C000DEBF0FBECDBF7C018B0187E0E7E6F0E02B
:1002D000DE01119601900D928A95E1F787E0EEE636
:1002E000F0E0DE01189601900D928A95E1F74AE060
:1002F000BE01615F7F4FC7010E944C044AE0BE010E
:100300006E5E7F4FC8010E944C048FE39CE9019709
:10031000F1F700C0000081E00E9441008FE99FE0FA
:100320000197F1F700C00000BE016F5F7F4F80E0D2
:100330000E94C00060E082E00E94B40080E00E9461
:10034000740062E080E00E94B40086E890E00E94C1
:10035000A700EA94EF2849F46AE080E00E94B40024
:100360008EE890E00E94A70008C06AE080E00E944A
:10037000B40084E990E00E94A70062E082E00E945D
:10038000B4008AE990E00E94A7000130110549F409
:100390006AE082E00E94B4008EE890E00E94A7002C
:1003A00008C06AE082E00E94B40084E990E00E9404
:1003B000A7008CE00E944100BE01685F7F4F81E092
:1003C0000E94C0006FE082E00E94B40081E00E94C1
:1003D000740064960FB6F894DEBF0FBECDBFDF91F8
:1003E000CF911F910F91FF90EF9008950F931F935E
:1003F000CF93DF93CDB7DEB762970FB6F894DEBF29
:100400000FBECDBF8C0187E0E7E6F0E0DE0111967C
:1004100001900D928A95E1F787E0EEE6F0E0DE01CB
:10042000189601900D928A95E1F74AE0BE01615F4E
:100430007F4FC8010E944C048FE39CE90197F1F7BC
:1004400000C0000081E00E9441008FE99FE0019719
:10045000F1F700C00000BE016F5F7F4F80E00E9497
:10046000C00060E082E00E94B40080E00E9474005E
:1004700063E080E00E94B40083EA90E00E94A7005D
:100480000130110549F466E082E00E94B4008FEA71
:1004900090E00E94A70008C066E082E00E94B400DD
:1004A00084EB90E00E94A7008CE00E944100BE0116
:1004B000685F7F4F81E00E94C0006FE082E00E9491
:1004C000B40081E00E94740062960FB6F894DEBF1B
:1004D0000FBECDBFDF91CF911F910F9108950F9364
:1004E0001F93CF93DF93CDB7DEB762970FB6F89423
:1004F000DEBF0FBECDBF8C0187E0E7E6F0E0DE0196
:10050000119601900D928A95E1F787E0EEE6F0E012
:10051000DE01189601900D928A95E1F74AE0BE013E
:10052000615F7F4FC8010E944C048FE39CE90197F3
:10053000F1F700C0000081E00E9441008FE99FE0D8
:100540000197F1F700C00000BE016F5F7F4F80E0B0
:100550000E94C00060E082E00E94B40080E00E943F
:10056000740063E080E00E94B40089EB90E00E9498
:10057000A7000130110549F466E082E00E94B40052
:100580008FEA90E00E94A70008C066E082E00E9427
:10059000B40084EB90E00E94A7008CE00E94410030
:1005A000BE01685F7F4F81E00E94C0006FE082E083
:1005B0000E94B40081E00E94740062960FB6F89425
:1005C000DEBF0FBECDBFDF91CF911F910F91089578
:1005D0000F931F93CF93DF93CDB7DEB72F970FB64F
:1005E000F894DEBF0FBECDBF8B0127E0E7E6F0E059
:1005F000DE01119601900D922A95E1F727E0EEE6D3
:10060000F0E0DE01189601900D922A95E1F74AE09C
:10061000BE01615F7F4F0E944C048FE39CE901970C
:10062000F1F700C0000081E00E9441008FE99FE0E7
:100630000197F1F700C00000BE016F5F7F4F80E0BF
:100640000E94C00060E082E00E94B40080E00E944E
:10065000740062E080E00E94B40087EC90E00E94A9
:10066000A70068E080E00E94B400CE010F960E94CF
:10067000A7006BE080E00E94B4008DEC90E00E9447
:10068000A70062E082E00E94B40080ED90E00E944A
:10069000A7000130110549F469E082E00E94B4002E
:1006A00087ED90E00E94A70013C0012B49F469E098
:1006B00082E00E94B4008DED90E00E94A70008C087
:1006C00069E082E00E94B40083EE90E00E94A700FF
:1006D0008CE00E944100BE01685F7F4F81E00E9474
:1006E000C0006FE082E00E94B40081E00E947400CC
:1006F0002F960FB6F894DEBF0FBECDBFDF91CF911E
:100700001F910F9108958FE39CE90197F1F700C0C5
:10071000000081E00E9441008FE99FE00197F1F71E
:1007200000C0000060E080E00E94B40087EE90E02E
:100730000E94A70060E082E00E94B4008EEE90E08C
:100740000E94A70008950E943501E12CF12C00E0E1
:1007500010E0C0E0D0E002C0C0E0D0E089B3883053
:10076000A9F42196C130D10539F463E070E08AE044
:1007700090E00E94E802F2CFC230D10569F760E054
:1007800070E080E090E00E945501E8CF89B38031AD
:10079000F1F5C8010E94F6012FEF81EE94E021509F
:1007A00080409040E1F700C00000C12CD12C25C052
:1007B00089B3803839F481E090E00E94F60101E0CD
:1007C00010E01BC089B3803439F480E090E00E94CF
:1007D000F60100E010E011C089B3883071F40E9486
:1007E00083032FEF80E792E0215080409040E1F7B3
:1007F00000C00000CC24C394D12CC114D104C1F298
:1008000060E070E080E090E00E945501A7CF89B3DE
:10081000803209F03FC0C7010E946F022FEF81EEC6
:1008200094E0215080409040E1F700C00000C12CCE
:10083000D12C26C089B3803841F481E090E00E9439
:100840006F02EE24E394F12C1BC089B3803439F499
:1008500080E090E00E946F02E12CF12C11C089B37E
:10086000883071F40E9483032FEF80E792E02150DB
:1008700080409040E1F700C00000CC24C394D12C0C
:10088000C114D104B9F260E070E080E090E00E9411
:10089000550164CF18BA62CFBB274A3031F499238F
:1008A00022F4BDE2909581959F4F0C945804BB278C
:1008B000FB015527AA27880F991FAA1FA41710F01C
:1008C000A41B83955051B9F7A05DAA3308F0A95D28
:1008D000A193009779F7B111B1931192CB010C94C8
:1008E0007104DC01FC01672F71917723E1F73297E6
:1008F00004C07C916D9370836291AE17BF07C8F3FB
:060900000895F894FFCFFA
:100906001F1F1F1F1F1F1F02060E1E0E0602080CAA
:100916000E0F0E0C08202020202057656C636F6D8B
:10092600652020202000426C61636B203A0048411C
:1009360053202000456D707479004F7468657220ED
:100946003A200046616E205370656564203A00487F
:10095600696768004C6F7720004272757368205390
:1009660070656564203A0053697A653A00636D00E4
:10097600436F6C6F723A00426C61636B004F746830
:100986006572004E6F74005570646174650053752E
:0C099600636365737366756C6C79000018
:00000001FF
